:020000040000fa
:10000000f83f0020a10500002d0800002f08000087
:1000100000000000000000000000000000000000e0
:1000200000000000000000000000000007080000c1
:1000300000000000000000000708000007080000a2
:100040000708000007080000070800000708000074
:100050000708000007080000070800000708000064
:1000600007080000070800006504000007080000fa
:100070000708000007080000070800000708000044
:100080000708000007080000070800000708000034
:100090000708000007080000070800000708000024
:0c00a00007080000070800000708000027
:020000040000fa
:1000ac00f8b5c046f8bc08bc9e46704781050000f8
:1000bc00f8b5c046f8bc08bc9e4670475905000010
:020000040000fa
:1000cc00800000201c0000000000000050000020f8
:1000dc003000000000000000a400002064000000bc
:1000ec000400000048656c6c6f2045766572796f72
:1000fc006e652121005400009c00002004000000cb
:10010c000000000000000020500000000000000073
:10011c00a00000200400000000000000000000000f
:10012c0000000000666666666666666666666666fb
:020000040000fa
:1001ac001f4b5a6852031b68db0c13439b029b0ac0
:1001bc001c4a936300235375110004228b691a4265
:1001cc00fcd118491022cb681a42fcd0154a137d79
:1001dc0080210b431375144b00229a611a61134b47
:1001ec00134a1a62190004224b681a42fcd10f4ab6
:1001fc00d0234021d15010009031402243581a4254
:10020c00fcd00a4ae4234021d1501000a4314022f2
:10021c0043581a42fcd0074b074ada617047c04674
:10022c00206080000010004000140040001c0040c2
:0c023c0006010100000800400410000052
:020000040000fa
:10024800f8b51e4b1b7d002b37d01c4a93685168ac
:100258001b4a127ed2071dd599421bd91849072679
:10026800164a944617001500012409e03a68d25c42
:100278000a85013368680a7e22420bd0984209d960
:100288004a683240012af1d1624612685800825aff
:100298000a85eee7094a936052689a420dd8074bdf
:1002a80000221a755a60064a01211175db68002b75
:1002b80003d0024b1869db689847f8bd500000204e
:0402c80000080042e8
:020000040000fa
:1002cc0070b5002830d0194b1a7d0023002a29d193
:1002dc00164b1860596001321a755c68144b1b7e02
:1002ec00db0716d5002c17d0002311490726012552
:1002fc0007e0c25c0a8501330a7e2a420bd09c427d
:10030c000ad04a683240012af3d15a00825a0a852f
:10031c00f1e7002400e01c00044b9c60044b01221c
:10032c009a750123180070bd0023fbe750000020d4
:04033c000008004273
:020000040000fa
:1003400010b5194a2c23d35c002b18d01300d269a6
:100350001b6a934213d2144b986a14490a8d92b2c5
:100360001b6a4c6807212140012909d00e4989697f
:10037000ca5401330c4a1362d2699a4205d010bda7
:10038000094989695c006252f3e7074b00222c217e
:100390005a54da61054a583111755b6a002beed068
:1003a000014b5b6a9847eae75000002000080042d2
:020000040000fa
:1003b00000230e4a10b513600d4a13600d4a1360f6
:1003c0000d4a13600d4a13600d4a536213610133e5
:1003d000936000f02dfa00f02bfa0a4c0a4b9c4275
:1003e00000d310bd08cc9847f8e7c046a000002015
:1003f0000c00002008000020000000200400002065
:0c04000010000020b8000000bc0000004c
:020000040000fa
:10040c00114b124a1a60124a9a81c02292025a6007
:10041c001a00d369002bfcd10b4a136802210b4341
:10042c001360d369002bfcd10a4b00229a61da616c
:10043c001a622c215a545a621a605a609a601a75c0
:10044c00da60da857047c0460008004204011040ab
:08045c002bf6ffff5000002009
:020000040000fa
:1004640010b5134b9b7d002b1ad0114a137edbb2bf
:10047400927d52b2002a14db0d4a137edbb2927dc8
:10048400d20703d5db0701d5fff7dcfe084a137e4c
:10049400dbb2927d520703d55b0701d5fff74eff10
:1004a40010bd5bb2002be7da00f0c0f8e4e7c04609
:0404b40000080042fa
:020000040000fa
:1004b800f8b5002000f034f964211048fff702ff76
:1004c8008225ed050d4c0e4f0fe0c82000f03ef9d7
:1004d80080231b04eb6123003a0043ca43c303cac9
:1004e80003c364212000fff7edfe8026f6032800f1
:1004f80000f094f93042fad1e7e7c046a4000020a2
:04050800cc0700001c
:020000040000fa
:10050c0010b50e4b0e4a934207d30e4801680029d2
:10051c0007d14368002b04d110bd002119700133a1
:10052c00f1e704008368084a9bb20c349b009b588b
:10053c0042682000984780002018e7e70000002060
:0c054c0000000020cc000000e0070000d0
:020000040000fa
:1005580010b5064c2378002b07d1054b002b02d091
:10056800044800e000bf0123237010bd8000002074
:100578000000000000000000044b10b5002b03d061
:100588000349044800e000bf10bdc0460000000059
:080598008400002000000000b7
:020000040000fa
:1005a00010b50a4b98470a4b9847fff7afff094b26
:1005b000ff229343084a9360084b9847084b98479b
:1005c000084b9847fff778fffee7c0469f060000fc
:1005d0009f0600000000000000ed00e0b1030000f5
:0805e0009f0600009f060000c9
:020000040000fa
:1005e800f7b5030000250192019a2e00954207d322
:1005f80003221a40511e8a41181a80081018febd9d
:100608001c78002c07d00c70013301350131ebe761
:1006180000250d5501345a7835190f19a242f7dc17
:0606280002333900e0e797
:020000040000fa
:02062e00704713
:020000040000fa
:1006300010b50c4b5b8b0722134000d110bd0a4c48
:10064000e38500f05bf8074b84221a752c23002207
:10065000e254636a002bf1d0034b986a5b6a9847b7
:0c066000ece7c0460008004250000020fb
:020000040000fa
:10066c008223db05802212041a60c02212041a6154
:10067c00012240215a5401315a5455323b39995474
:10068c00002251315a542739332058540b315a54c3
:02069c007047a5
:020000040000fa
:02069e007047a3
:020000040000fa
:1006a0000a4b01221a6019000b691a42fcd1074b50
:1006b000c022d2001a6003221a73b7329a83873a93
:1006c0009a721a001369002bfcd170470030004267
:020000040000fa
:1006d000bff35f8f62b6074bc22080001a580649ed
:1006e0001140c02212040a431a508022d2001a601c
:0c06f0007047c04600e100e0ffff00ff83
:020000040000fa
:1006fc00094b5b8b5b070dd0074b80221a76793a3e
:10070c005a831b7e5b0705d5034b04211a8d1a7e79
:0c071c000a42fbd17047c04600080042b2
:020000040000fa
:1007280010b5094b06225a60fff79cfffff73afd08
:1007380000f06ef8fff766fefff775fffff7acfff6
:0c074800fff7c2ff10bdc046004000419a
:020000040000fa
:1007540070b5051e0cd0002400f01af800f052f811
:100764000028fbd000f022f80134a4b2a542f3d152
:0207740070bd56
:020000040000fa
:10077600002310b5934206d103201840421e904133
:0e0786009b08c01810bdc45ccc540133f2e7d0
:020000040000fa
:10079400054a136802210b431360110002220b69fe
:0c07a4001a42fcd17047c04600300042f1
:020000040000fa
:1007b000054a136802218b431360110002220b6962
:0c07c0001a42fcd17047c04600300042d5
:020000040000fa
:1007cc0059656c6c6f77204c454420546f67676c8f
:0407dc00650d0a009d
:020000040000fa
:1007e000f50700007707000029080000290800002d
:0407f000e905000017
:020000040000fa
:1007f4008a18914201d10020704700230b70013107
:02080400f7e714
:020000040000fa
:02080600fee70b
:020000040000fa
:10080800024b987a012210409872704700300042db
:020000040000fa
:0c081800014b84225a60704700400041f0
:020000040000fa
:04082400006a7047af
:020000040000fa
:0408280000207047f5
:020000040000fa
:02082c00fee7e5
:020000040000fa
:02082e00fee7e3
:020000040000fa
:0208300070470f
:020000040000fa
:0200000400807a
:04400000ff00fe03bc
:020000040000fa
:0200000400807a
:0440040000fcffffbe
:00000001FF
